:020000040800F2
:100000000000032081050008B91D0008BB1D000881
:10001000BD1D0008BF1D0008C11D00080000000034
:1000200000000000000000000000000081730008D4
:10003000C31D00080000000011740008836C000854
:10004000D1050008D1050008D1050008D105000838
:10005000D1050008D1050008D1050008D105000828
:10006000D1050008D1050008D1050008D105000818
:10007000D1050008D1050008D1050008D105000808
:10008000D1050008D1050008D1050008D1050008F8
:10009000D1050008D1050008D1050008D1050008E8
:1000A000D1050008D1050008D1050008D1050008D8
:1000B000D1050008D1050008D1050008D1050008C8
:1000C000D1050008D1050008D1050008D1050008B8
:1000D000D1050008D1050008D1050008D1050008A8
:1000E000D1050008D1050008D1050008D105000898
:1000F000D1050008D1050008D1050008D105000888
:10010000D1050008D1050008D1050008D105000877
:10011000D1050008D1050008C51D0008D10500085B
:10012000D1050008D1050008D1050008D105000857
:10013000D1050008D1050008D1050008D105000847
:10014000D1050008D1050008D1050008D105000837
:10015000D1050008D1050008D1050008D105000827
:10016000D1050008D1050008D1050008D105000817
:10017000D1050008D1050008D105000800000000E5
:10018000D1050008D1050008D1050008D1050008F7
:10019000D1050008D1050008D1050008D1050008E7
:0C01A000D11D0008D1050008DD1D00087D
:1001B00010B5054C237833B9044B13B10448AFF3A1
:1001C00000800123237010BD6401002000000000A6
:1001D00024E1010808B5034B1BB103490348AFF301
:1001E000008008BD000000006801002024E1010833
:1001F00001F0FF01102A2BDB10F0070F08D010F8D8
:10020000013B013A8B422DD010F0070F42B3F6D1DB
:10021000F0B441EA012141EA014122F007047FF0F4
:1002200000070023F0E80256083C85EA010586EA4B
:10023000010685FA47F5A3FA87F586FA47F6A5FA87
:1002400087F68EB9EED1F0BC01F0FF0102F0070293
:1002500032B110F8013B013A83EA010313B1F8D13E
:100260000020704701387047002D06BF354603381F
:10027000073815F0010F07D1013015F4807F02BF58
:10028000013015F4C03F0130F0BC0138704700BFA9
:1002900053B94AB9002908BF00281CBF4FF0FF31ED
:1002A0004FF0FF3000F06AB9ADF1080C6DE904CEF3
:1002B00000F006F8DDF804E0DDE9022304B0704741
:1002C0002DE9F047089D0C46002B4ED194468C45F5
:1002D0008646B2FA82F262D94AB1C2F12003914055
:1002E00020FA03F30CFA02FC194300FA02FE4FEA6B
:1002F0001C471FFA8CF6B1FBF7F44FEA1E4307FBCD
:10030000141143EA014304FB06F199420AD91CEB9C
:10031000030304F1FF3080F01281994240F20F8113
:10032000023C6344591A1FFA8EF3B1FBF7F007FB46
:10033000101143EA014300FB06F69E420AD91CEB6A
:10034000030300F1FF3180F0FC809E4240F2F9800F
:10035000634402389B1B40EA044000211DB1D34096
:100360000022C5E90032BDE8F0878B4205D90DB106
:10037000C5E9000100210846F5E7B3FA83F1002939
:1003800046D1A34202D39042C0F0F080861A64EBBB
:1003900003030120002DE6D0C5E90063E3E7002A4E
:1003A00040F09080A1EB0C044FEA1C481FFA8CF738
:1003B0000121B4FBF8F64FEA1E4308FB164443EA5A
:1003C000044307FB06F0984208D91CEB030306F12F
:1003D000FF3402D2984200F2CD8026461C1A1FFA42
:1003E0008EF3B4FBF8F008FB104443EA044300FB2F
:1003F00007F79F4208D91CEB030300F1FF3402D238
:100400009F4200F2B0802046DB1B40EA0640A5E791
:10041000C1F120068B4022FA06F71F4320FA06FCA2
:1004200004FA01F343EA0C03F44000FA01F8380C33
:100430004FEA1349B4FBF0FE1FFA87FC00FB1E4491
:1004400049EA04440EFB0CF9A14502FA01F20AD96B
:100450003C190EF1FF3A80F08480A14540F2818082
:10046000AEF1020E3C44A4EB09041FFA83F9B4FB7D
:10047000F0F300FB134449EA044403FB0CFCA445DD
:1004800007D93C1903F1FF3067D2A44565D9023B77
:100490003C4443EA0E40A0FB0293A4EB0C049C42B4
:1004A000CE469C4651D34ED055B1B8EB0E0364EB0B
:1004B0000C0404FA06F6CB401E43CC40C5E90064A8
:1004C000002150E7C2F1200320FA03F10CFA02FCEC
:1004D00024FA03F394400C434FEA1C4800FA02FE4E
:1004E0001FFA8CF7B3FBF8F008FB1031230C43EA3A
:1004F000014300FB07F1994208D91CEB030300F10B
:10050000FF362CD299422AD9023863445B1AA4B22E
:10051000B3FBF8F108FB113344EA034401FB07F392
:10052000A34208D91CEB040401F1FF3613D2A34205
:1005300011D902396444E41A41EA004139E704461A
:10054000F0E6084606E7C845AED2B9EB020E63EB0B
:10055000070C0138A8E73146EDE7034699E7304636
:10056000D4E7D6467FE7634402384DE70646234684
:1005700008460FE7023E634430E700BF704700BF04
:10058000DFF834D0002103E00C4B5B5843500431BA
:100590000B480C4B42189A42F6D30B4A02E0002358
:1005A00042F8043B094B9A42F9D303F04FFE1DF089
:1005B00049F800F0B9FD704700000320481D070806
:1005C000000000206401002064010020CC250120EF
:1005D000FEE7704708B500F0D1FBBDE8084000F029
:1005E0005DBB00F0CDBB704710B5042104461CF084
:1005F000F5FC204610BD000038B50C4B0C4C1880A3
:100600000C4B822019806368984740F6110398428A
:100610000AD1094D23682C60822098472B688220DC
:10062000DB689847002038BD0120FCE78A010020E4
:100630004C000020880100208C0100204FF4A071A4
:10064000F020FFF7D9BF0000F7B5334D2B68044603
:100650001B6982209847208000284AD02B680DF122
:1006600006025B6901A982209847BDF8063040F672
:10067000746293423FD9ADF80620BDF80630D21A15
:1006800092B20A2A3DD90B23B2FBF3F2234B1B880B
:100690009A4201D9013B9AB2BDF8043040F6B83114
:1006A0008B4230D8C3F571630E339BB20F21B3FB7D
:1006B000F1F31B4909888B4201D901398BB2194EDC
:1006C000194D30682F68834281B28CBF591AC91AFC
:1006D000B8B2BA428CBF101A801A89B280B20144F3
:1006E0000529C8BF33603368C8BF2A6063802B68A0
:1006F000A38003B0F0BDB32B9CBFB423ADF806308C
:10070000BBE70022C8E7C3F56D6308339BB20E2B2D
:10071000CCD80023D3E700BF8C0100208801002043
:100720008A010020840100208001002037B568463E
:100730000D461446FFF788FFBDF8000030B1BDF844
:1007400002302B60BDF804302360012003B030BDBF
:10075000032821D8DFE800F0020B12190F4B1A68AA
:10076000B2FA82F2520904210D4804F01BBA0B4B75
:100770005A68B2FA82F252090821F5E7074B9A68E3
:10078000B2FA82F252091021EEE7044BDA68B2FAAB
:1007900082F252092021E7E7704700BF9001002054
:1007A00000100240032821D8DFE800F0020B1219E4
:1007B0000F4B1A68003A18BF012204210D4804F0BB
:1007C000F1B90B4B5A68003A18BF01220821F5E72E
:1007D000074B9A68003A18BF01221021EEE7044B3C
:1007E000DA68003A18BF01222021E7E7704700BF0E
:1007F000900100200010024003280DD8DFE800F02F
:100800000206080A0421054804F0D1B90821FAE7D4
:100810001021F8E72021F6E7704700BF00100240E2
:1008200008B5032811D8DFE800F0020A0C0E0421F5
:10083000074804F0B1F9431E5842584108BD082149
:10084000F6E71021F4E72021F2E70020F3E700BFEC
:100850000010024070B5084D00240126E0B2FFF7F9
:10086000DFFF18B12B68012B18BF2E600134052C57
:1008700005F10405F2D170BD90010020012380F83C
:10088000781080F87930704700207047034B41643E
:10089000003918BF01211970704700BF9B19012052
:1008A00000207047836B0BB10846184770474068BB
:1008B00003689B69184770477047704710B5044636
:1008C00000F022FB23680349D3F88C302046BDE8B2
:1008D00010401847000000D008B503680446D3F85C
:1008E00080309847236820469B6F984700F0ECF8CB
:1008F000236820461B6F9847292000F0EFFE00F088
:10090000E3F8236820461B6F9847F8E710B50446C4
:1009100009F034FB23682046D3F8AC30BDE8104022
:10092000184700F0B7BA00F0BBBA00F0D5BA00F033
:100930008FBA00F0E1BA00F0D3BA00F091BA08F033
:1009400089BD10B57C2104461CF048FB204610BD33
:1009500010B590F8341090F878400C4B8C421A780F
:1009600009D03AB90A4A0B491488088810800C80CB
:1009700001221A7010BD002AFCD0054A05491488CE
:10098000088810800C800022F3E700BF9419012032
:10099000901901209219012070B50D46194635B9FC
:1009A000094B0A4A0A4840F2D2211CF045FBC0E933
:1009B0000F52084B003A18BF01221A700368BDE8B5
:1009C0007040D3F88C30184794E10108CCE101085D
:1009D0001AE201089A19012008B5094B1B888B42BD
:1009E00003D8084B1B88934205D9074B074A084890
:1009F0009E211CF021FB074B1980074B1A8008BD74
:100A000090190120921901205FE20108C2E2010859
:100A10001AE201089619012098190120034690F85E
:100A20007A0018B1586803681B68184770470000BF
:100A3000012108B50022084606F0AFF90A4B1860FC
:100A400028B90A4B0A4A28210A481CF0F5FA002264
:100A50000421012006F049FA074B186018B9074B2A
:100A6000034A2C21F0E708BDA4010020E0E30108BF
:100A700029E4010858E40108A0010020A7E40108C6
:100A8000024B4FF0FF31186806F0D1B9A4010020E5
:100A9000014B186806F0F7B9A4010020024B0021B1
:100AA000186806F0C4B900BFA4010020FFF7F0BF2A
:100AB00003480449006800231A4606F051BA00BFF3
:100AC000A00100200400002013B5084C00231A46A2
:100AD00001A9206806F075FA20684FF0FF33002264
:100AE00001A906F06EFA02B010BD00BFA0010020FF
:100AF00006F047B9704700207047704770470020E4
:100B00007047704708B5034A034B044822211CF084
:100B100093FA00BF0CE50108E9E401084AE5010881
:100B200008B5034A034B044827211CF085FA00BF8F
:100B300097E50108E9E401084AE5010810B54421F8
:100B400004461CF04BFA204610BD000038B50446A0
:100B500021460025064B25720C306060657201222B
:100B600041F8203B09F048FBE562204638BD00BF54
:100B7000E0E50108012070470C2070470C2303FBBF
:100B80000100083070470C2303FB01000830704758
:100B9000012070474FF43E7070474FF43E7303FBE3
:100BA0000100083070474FF43E7303FB010008302A
:100BB0007047012070471020704700EB011008308B
:100BC000704700EB011008307047084601F060BA2A
:100BD00010B5034B0360044608F091F9204610BDA0
:100BE00098E6010810B50446FFF7F2FF20461421ED
:100BF0001CF0F4F9204610BD10B5034B0360044609
:100C000008F07DF9204610BD64E6010810B50446E1
:100C1000FFF7F2FF20464FF440711CF0DFF9204649
:100C200010BD000010B5034B0360044608F067F9DF
:100C3000204610BD30E6010810B50446FFF7F2FF6C
:100C4000204618211CF0CAF9204610BD10B5084BEB
:100C50000360044600F54B70FFF7BAFF04F12C0067
:100C6000FFF7CAFF04F11400FFF7DCFF204610BDB8
:100C7000CCE6010808B50248FFF7E8FF08BD00BF51
:100C8000FC02002010B50446FFF7E0FF20464FF4B9
:100C900095611CF0A3F9204610BD00002DE9F34139
:100CA00001F016F9054601F017F900240146234624
:100CB0002846224600940EF0FDFC254B254A264D81
:100CC0001A60204602F06CFC24480EF05BFC2B6896
:100CD000BFF35B8FDB0735D428461CF081F988B35E
:100CE0001F4C204B236004F5537604F1140004F1EB
:100CF0002C0804F54B776060C4F80880E760266133
:100D000008F0FEF8184B6361404608F0F9F8174BFD
:100D1000E362384608F0F4F8154BC4F82C3304F5B8
:100D2000507002F0BDFC224604F55071304602F0CE
:100D3000ADFC304601F0ACF90E481CF09BF928469A
:100D40001CF05AF90C4802B0BDE8F041FFF7B6BDFF
:100D5000F819012024020020F802002008000020D9
:100D6000FC020020CCE6010830E6010864E6010838
:100D700098E60108750C0008A801002070470000E3
:100D80000148FFF7A9BD00BFA801002070B5224EA1
:100D9000224C234D234B23603046FFF7D7FE2846D5
:100DA00012F05AFF204B2148DC6000224FF4807182
:100DB000C3E912121E491A86C3E91A121D4999671E
:100DC0001D4983F858200B60F02101801B485A66AA
:100DD00001801B4883F870204FF4A071C3E90422FE
:100DE000C3E90622C3E90822C3E90A22C3E90E22A5
:100DF000C3E91022C3E91422C3E917225A67C3E9E1
:100E0000016501800F4801800F490A70012283F8B3
:100E100034200E4A1A6070BDB0020020F402002097
:100E20002802002084E10108A80100209019012077
:100E300001000001000001019C1901209619012008
:100E400092190120981901209419012010E301083A
:100E5000024B902283F85823704700BF00E100E066
:100E6000094A0A49D3680A48C3F30A03013B9BB203
:100E70000B801169C1F30A01013901801364536BBE
:100E800043F001035363704700680140A607002048
:100E9000A4070020014BD3F8AC0070470068014064
:100EA000024B0122C3F8AC105A627047006801403F
:100EB000064B586CDB68C3F30A0380B201339842D7
:100EC00026BFC01A80B20020704700BF00680140F2
:100ED00008F0FCBA08F006BB08F0C2BA08F023BC60
:100EE000044B4FF08072C3F88820BFF34F8FBFF3DD
:100EF0006F8F704700E100E0024B4FF080729A6004
:100F0000704700BF00E100E070B5044608F0F7FA52
:100F100023685D6E0BF056FB01462046A8470E4B3A
:100F2000A36323682046D3F89C3098474FF6FF739D
:100F3000984205D0094B1B7813B9012384F8483037
:100F40002368D3F8885000232046AC461A46BDE8F3
:100F500070404FF050416047F10A00089A19012093
:100F600010B5144C236823B3134B144A1B6C11881F
:100F70008B4213D1124B198804F026FC226892F898
:100F80006A30013382F86A30FFF792FD206808F07A
:100F9000F5FFBDE810400020FFF7DABB04F014FCB9
:100FA000206803681B6A9847BDE810400020FFF7DF
:100FB000F9BB10BD9C19012000680140A607002064
:100FC000A407002007B5064BADF806001B680548CE
:100FD00001220DF1060105F06DF903B05DF804FB87
:100FE0000C0000203C08002008B5054C20464FF4BA
:100FF000005103F0DCFD4FF4FA7005F0C2FEF5E796
:101000000018024073B501231C4E1D4D8DF80330AE
:101010001C48012103F0C0FD01280AD11A480A2307
:10102000006800220DF1030105F09AFFC82005F0C9
:10103000A8FE304603F0FEF9284603F0FBF9012133
:10104000304603F075FA0121284603F071FA304664
:1010500003F0C1FA0446284603F0BDFAA4B244EAFC
:1010600000440A4801940A23002201A9006805F0FF
:1010700077FF642005F085FECAE700BF200A002044
:10108000D809002000000240AC070020B007002073
:1010900030B595B0102200210AA81CF0D4F9142212
:1010A000002103A81CF0CFF900241D4B01941A6CF9
:1010B00042F080521A641B6C03F080530193019B31
:1010C000184B02941A6842F440421A601B6803F4F9
:1010D000404302930122029B4FF48033CDE9082361
:1010E00002254FF48003CDE90E5308214FF4A87375
:1010F000CDE9101308A804231393129504F082FB82
:101100000F23CDE903354FF4A0504FF48053CDE9C0
:101110000603052103A8059404F050FD15B030BD69
:1011200000380240007000402DE980489BB003F079
:101130009BF8FFF7ADFF142200210DA800241CF03E
:1011400082F9C84B00941A6BC748C84E42F010028F
:101150001A631A6B02F010020092009A01941A6B43
:1011600042F020021A631A6B02F020020192019AE7
:1011700002941A6B42F080021A631A6B02F080022A
:101180000292029A03941A6B42F004021A631A6BD9
:1011900002F004020392039A04941A6B42F00102D3
:1011A0001A631A6B02F001020492049A05941A6BF6
:1011B00042F002021A631A6B02F002020592059ACB
:1011C00006941A6B42F040021A631A6B02F0400256
:1011D0000692069A07941A6B42F008021A631B6B78
:1011E00003F00803079322463C21079B03F0DAFC37
:1011F0009F482246042103F0D5FC9E4822464FF426
:10120000405103F0CFFC22469B484FF4005101258A
:1012100003F0C8FC4FF003093C239348CDF84090FD
:101220000DA94FF0020A0427CDE90D350F9403F004
:10123000CFFB8F48CDF840A00DA9CDE90D750F94D7
:1012400003F0C6FB4FF440538A480DA9CDE90D3594
:101250004FF4005BCDE90F4A03F0BAFB0DA98648B5
:10126000CDE90DB5CDE90F4403F0B2FB8348844BC3
:10127000036003F0A1FA834A834B3462C6E900237A
:1012800030464FF48043C6E90434C6E90244C6E957
:10129000064403F095FE1021304604F0D9F82146AB
:1012A000304604F0F4F87948794984624FF4827347
:1012B000C0E900134FF400761823C0E906630A233F
:1012C000744EC362C0E90244C0E90444C0E9084462
:1012D00004F094FF704BC6F828B04FF01008C6E930
:1012E00000354023C6E904834FF4C073C6E90634D1
:1012F0004FF40063C6E908340DA907233046CDE951
:101300001039CDE90E374FF0080BC6E90247CDE999
:1013100012AACDF834A004F055FE4FF6FF7209A9C9
:101320003046CDE90AB5089409950C9404F06AFE9C
:10133000284602F0C5FF4FF6FF7209A93046CDE9F5
:1013400009ABCDE90B5404F05DFE4FF6FF7209A91D
:101350003046CDE9099BCDE90B7404F053FE4FF400
:101360000C730893089B0C934FF6FF7209A9304643
:10137000CDE9097B0B9504F045FE40F26A513046F9
:1013800004F05EFE342221460DEB02001CF05BF8F7
:10139000424E434B3461C6E900340923C6E90535A2
:1013A0001D2340F20D1CC6E9073940F24313C6E97C
:1013B00009C340F2171E40F247133046C6E90BE35B
:1013C000C6E90244B48686F8364004F005F9FF21E8
:1013D000F022CDE912144FF005094FF480614FF46B
:1013E000A073CDE90E24CDE91419CDE916420DA95B
:1013F00022463046CDE9103A2A4E18930D94ADF8A6
:1014000064408DF8664004F0B2F9274B33601B68E6
:1014100098473368254EDB689847254B3046C6E928
:101420000034C6E902A4C6E90A4AC6E90C4403F03E
:10143000D3F92946304603F087FA1E4EDFF878A02C
:10144000424621460DA81BF0FEFF4FF48033C6E94B
:1014500000A34FF0007BDFF864A0C6F808B0304668
:1014600034612DE000380240001002403C090020A9
:1014700000080240000C024000180240D009002081
:1014800000300240005C0040A08601003C080020C3
:1014900000500140C0070020400100A09408002037
:1014A00000680140A80700201400002090090020D7
:1014B00000B00240200A0020002001400100000F7F
:1014C000347686F82040F462C6F828A0F460F5610E
:1014D00086F83040756102F007FF0D220DA93046F5
:1014E000CDE90D25304E0F9403F078F821464246A1
:1014F0000DA81BF0A8FF2D4AC6F808B04FF48033A2
:101500003046C6E90023C6E90AA43461347686F879
:101510002040F460F56186F83040756102F0E4FE29
:101520000DA93046CDE90D95DFF8BCB00F9403F05E
:1015300055F81F484FF4E133C0E900B30C23C0E96C
:101540000534C0E902440461C46105F0CFFAFFF735
:1015500041F8FFF73EF805F0A1FB164A3946404630
:1015600005F0C3FC144B154A18602946284605F0BF
:10157000BCFC134B134A18602146134805F0BAFB14
:10158000124B134A18602146124805F0B3FB124B68
:10159000124A18602146124805F0ACFB114B186046
:1015A00005F08EFBFEE700BFD809002000210140B6
:1015B000F407002034E70108B00700201CE7010809
:1015C000AC07002094E70108E90F0008BC070020E1
:1015D00070E70108E3050008B80700204CE70108A0
:1015E00005100008B4070020001001407047704744
:1015F0007FB5094B8DF817201B6802930DF1170278
:101600000123009201930A460146044803F080FD3D
:1016100007B05DF804FB00BF100000203C0900206B
:101620007FB500238DF81730084B1B6802930A46DC
:1016300001230DF11701009101930146044803F0C5
:10164000F7FD9DF8170007B05DF804FB10000020BF
:101650003C0900201FB5084C24680092CDE90134F4
:101660000A4601230146054803F0E2FD003818BF91
:10167000012004B010BD00BF100000203C09002074
:1016800002F01EBE10B5064C00222046042103F0D5
:1016900089FA20460122BDE81040042103F082BAF5
:1016A0000008024038B50B4D044601220A484FF4A9
:1016B000005103F077FA00220421284603F072FA61
:1016C0002046FFF77FFC28460122BDE83840042170
:1016D00003F068BA00080240000C024038B50B4D18
:1016E000044600220A484FF4005103F05BFA00223E
:1016F0000421284603F056FA2046FFF763FC2846EB
:101700000122BDE83840042103F04CBA0008024031
:10171000000C0240F7B5144E144F05460C463046F7
:101720000022042103F03EFA00224FF40051384613
:1017300003F038FA2846FFF745FC0D4B0D481B68AF
:10174000224601A904F061FF384601224FF40051FE
:10175000019C03F027FA30460122042103F022FA0B
:10176000204603B0F0BD00BF00080240000C02405C
:101770000C0000203C08002002F0A2BD0268034BD0
:101780009A4201D102F08ABD704700BF00100040AC
:101790007047000082B00E4B00220092596C41F459
:1017A00080415964596C01F4804100910099019283
:1017B000196C41F0805119641B6C03F08053019344
:1017C000019B0F216FF0010002B002F0B5BF00BF16
:1017D0000038024010B514228AB0044600210DEBF7
:1017E00002001BF030FE2368214A93421FD1214B97
:1017F0002148002101915A6C42F480725A645A6C5B
:1018000002F480720192019A02911A6B42F0040272
:101810001A631B6B03F0040302930821029B03234A
:10182000CDE9051305A903F0D3F80AB010BD134A9A
:101830009342FAD10F4B1248002103915A6C42F4A3
:1018400000725A645A6C02F400720392039A049173
:101850001A6B42F001021A631B6B03F0010304933D
:10186000049B20220323CDE9052305A9DBE700BF64
:1018700000200140003802400008024000210140E1
:10188000000002400268094B9A4282B00BD100234B
:101890000193074B1A6B42F480521A631B6B03F4DB
:1018A00080530193019B02B0704700BF003002409B
:1018B0000038024007B50F4B02689A4216D1002249
:1018C000A3F5F0430192196B41F4000119631B6BFE
:1018D00003F40003019305215A20019B02F02CFF21
:1018E0005A2003B05DF804EB02F058BF03B05DF876
:1018F00004FB00BF00B002402DE9F043044689B06C
:101900001422002103A81BF09EFD2268244B9A425A
:1019100043D1244C244800250095236B43F0040355
:101920002363236B03F004030093009B0195236B57
:1019300043F001032363236B03F001030193019B35
:101940004FF012094FF400734FF0010803270426EB
:1019500003A9CDE90339CDE90587079603F038F8E7
:101960004FF480731148079603A9CDE90339CDE9F7
:10197000058703F02DF80295236C43F400032364DC
:10198000236C03F400030293029B236A43F40003D5
:101990002362236A23F40003236209B0BDE8F083C5
:1019A000005C004000380240000802400000024095
:1019B000F0B599B004461422002107A81BF043FD9E
:1019C00030220DEB020000211BF03DFD22685E4B32
:1019D0009A4240F0B78008230C93C023109304234D
:1019E00012930CA84FF40033159304F0BFF908B11B
:1019F000FFF7CEFE554B5648002400945A6C42F037
:101A000080625A645A6C02F080620092009A0194DB
:101A10001A6B42F020021A631A6B02F02002019244
:101A2000019A02941A6B42F001021A631A6B02F0D7
:101A300001020292029A03941A6B42F002021A63A4
:101A40001A6B02F002020392039A04941A6B42F09A
:101A500040021A631A6B02F040020492049A059441
:101A60001A6B42F004021A631A6B02F00402059228
:101A7000059A06941A6B42F008021A631B6B03F076
:101A80000803069302250E26069B0B964FF48063EF
:101A900007A9CDE90735CDE9094502F099FF41F6DF
:101AA00058032C480B9607A9CDE907350927CDE93E
:101AB000094502F08DFF032327480B9707A9CDE9BD
:101AC0000735CDE9094502F083FF4FF470632248E2
:101AD0000B9607A9CDE90735CDE9094502F078FF56
:101AE0004FF40C631D480B9607A9CDE90735CDE9E6
:101AF000094502F06DFFC02319480B9607A9CDE9EF
:101B00000735CDE9094502F063FF082315480B9618
:101B100007A9CDE90735CDE9094502F059FF4FF492
:101B2000A0530E480B9707A9CDE90735CDE9094524
:101B300002F04EFF58202246052102F0FDFD5820FC
:101B400002F02CFE19B0F0BD0068014000380240E0
:101B5000001402400000024000040240001802404D
:101B600000080240000C024010B5044688B0142260
:101B7000002103A81BF067FC2268144B9A4223D172
:101B800003F56843002101915A6C114842F4801218
:101B90005A645A6C02F480120192019A02911A6BF3
:101BA00042F020021A631B6B03F020030293029B96
:101BB0004FF4607202230321CDE903230523CDE90D
:101BC000061303A902F004FF08B010BD0050014045
:101BD0000014024010B5044688B01422002103A866
:101BE0001BF031FC2268144B9A4223D103F5943345
:101BF000002101915A6C114842F010025A645A6C4B
:101C000002F010020192019A02911A6B42F0010255
:101C10001A631B6B03F001030293029B4FF4C06233
:101C200002230321CDE903230723CDE9061303A9EA
:101C300002F0CEFE08B010BD0010014000000240CE
:101C40002DE9F04186B0002303932B4B1C68002C38
:101C50004FD14FF00108C3F80080284B00949A6BD5
:101C6000274842EA08029A639B6B03EA0803009341
:101C7000022703260C25009B01A94FF63F03CDE95F
:101C80000137CDE9046502F0A3FE1E48059501A9C0
:101C9000CDE90187CDE9034602F09AFE48F23313FD
:101CA0001948059501A9CDE90137CDE9034602F0B0
:101CB0008FFE4FF683731548059501A9CDE90137CD
:101CC000CDE9034602F084FE4CF2037310480595FB
:101CD00001A9CDE90137CDE9034602F079FE602381
:101CE0000C48059501A9CDE90137CDE9034602F07D
:101CF0006FFE06B0BDE8F081680A0020003802409F
:101D00000014024000080240001802400010024087
:101D1000000C02400004024070B588B0002302931A
:101D2000204B1A6C42F010021A641B6C03F0100373
:101D30000293054601A903A8029B03F0F9FF069B45
:101D40004BBB03F0D5FF184E184B336040F2E7331E
:101D5000F360174BB0FBF3F3013B73603046002395
:101D60003361B360B36104F035FE044680B9304698
:101D700004F0F2FC044658B9362002F00FFD0F2D96
:101D80000DD822462946362002F0D6FC094B1D60AC
:101D9000204608B070BD03F0ABFF4000D3E701243C
:101DA000F6E700BF003802406C0A00200010004037
:101DB00040420F007C0000207047FEE7FEE7FEE790
:101DC000FEE77047014804F005BD00BF6C0A002023
:101DD000014803F06FBC00BF94080020014802F0E6
:101DE00029BD00BF900900200120704708B51BF0F5
:101DF00023FC162303604FF0FF3008BD08B51BF02D
:101E00001BFC16230360FEE770B50D4614460E4614
:101E1000731B9C4201DC204670BDAFF3008006F8C6
:101E2000010BF5E770B50D4614460E46731B9C4238
:101E300001DC204670BD16F8010BAFF30080F5E71A
:101E40004FF0FF3070474FF400534B600020704755
:101E500001207047002070470A4A116808B5034600
:101E600009B9094911601068694603448B4206D9D3
:101E70001BF0E2FB0C2303604FF0FF3008BD136042
:101E8000FCE700BFB40A0020D0250120704710B540
:101E9000042104461BF0A2F8204610BD08B5032912
:101EA00013D8DFE801F002060A0E01F0C5FB006856
:101EB00008BD01F0C1FB4068FAE701F0BDFB806896
:101EC000F6E701F0B9FBC068F2E70020F0E7000098
:101ED00000487047CCE701082020704713B5002464
:101EE00051B1036801948DF8034001AA9C680DF17B
:101EF0000303A04702B010BD0846FBE7C089704746
:101F0000008A7047C088704780887047807A00F0E8
:101F10007F007047807AC00970470020704700003A
:101F20009FED010A704700BF00000000704710B528
:101F3000082104461BF052F8204610BD7047704738
:101F400000F598730868496803C370477047704785
:101F50004160704770470000064BC0F84C310023C9
:101F6000C0F8503100F5A273C0F84801C0F8403104
:101F7000704700BF89230008012303727047704730
:101F8000704710B4C26841685410034601EB620008
:101F9000D20748BF0A599B685DF8044B48BFD35825
:101FA00018470346406830B19A681AB9D86800F0FB
:101FB000010070470120704710B50C2104461BF04A
:101FC0000DF8204610BD10B5102104461BF006F890
:101FD000204610BD10B54FF4AE7104461AF0FEFF56
:101FE000204610BD10B50AF0EDFA0368BDE81040B8
:101FF000DB6B184710B50446D0F8400158B10368B0
:10200000DB68984738B1D4F8400103689B6898476B
:102010000023C4F8403110BD044B1B6893F85820CE
:102020000AB1D86C00B99868704700BF9C190120AC
:10203000F8B5044617460E460AF0D0FB104B1C605C
:10204000104B2360104B0025C4E951350F4BC4E9F8
:1020500053551868036829469B68C4E94F55C4E97D
:1020600055769847284601F09BFAFFF7D5FF13F005
:1020700024FCFFF7D1FF13F09BFC2046F8BD00BF06
:10208000E819012010EF0108F8EE01089C19012061
:10209000064BC0F84C310023C0F8503100F5A27354
:1020A000C0F84801C0F84031704700BF89230008DC
:1020B000064BC0F84C310023C0F8503100F5A27334
:1020C000C0F84801C0F84031704700BF4122000805
:1020D000064BC0F84C310023C0F8503100F5A27314
:1020E000C0F84801C0F84031704700BFF92000082F
:1020F00003685B6A184700002DE9F14FD0E9556A83
:102100000746B06803681B6A9847B0F53E7F05D262
:10211000434B444AA32144481AF08EFF7068036879
:102120001B6A98470F2803D8404B3E4AA421F2E788
:10213000F06803681B6A98470B2803D83C4B394A60
:10214000A521E8E70AF03EFADFF8EC9004300AF047
:1021500077FAD9F8000010B10368DB689847D9F81E
:10216000000010B103681B689847DFF8D080D8F8EA
:10217000000010B103685B699847D7F83C0110B1C3
:1021800003685B689847D8F8000010B103681B68C3
:102190009847D7F83C0110B103689B689847F068EE
:1021A0000021FFF7A5FF4FF0000B224BC0F804B051
:1021B000044680F808B00360B068036859465B6A5B
:1021C0009847054601F080FD7068036859465B6AD0
:1021D00098472946064601F03FFD331DC7F83C618C
:1021E000C9F80040C8F80050CAF800302B68C6F89B
:1021F00008A02846DB68EE639847336830461B68C2
:102200009847214628460BF0F1FE236820461B69BB
:10221000984723685B69204601B0BDE8F04F184736
:102220005CEA0108EAEA0108BCEB010803EC0108DA
:10223000A6EC010864EF0108DC190120D81901207F
:102240002DE9F14FD0E9556A0746B06803681B6A6B
:102250009847B0F5327F05D2434B444AA321444806
:102260001AF0EAFE706803681B6A98470F2803D8C3
:10227000404B3E4AA421F2E7F06803681B6A984786
:102280000B2803D83C4B394AA521E8E70AF09AF914
:10229000DFF8EC9004300AF0D3F9D9F8000010B15F
:1022A0000368DB689847D9F8000010B103681B6821
:1022B0009847DFF8D080D8F8000010B103685B6958
:1022C0009847D7F83C0110B103685B689847D8F885
:1022D000000010B103681B689847D7F83C0110B1A3
:1022E00003689B689847F0680021FFF701FF4FF0F3
:1022F000000B224BC0F804B0044680F808B003601D
:10230000B068036859465B6A9847054601F0F0FAE1
:102310007068036859465B6A98472946064601F08B
:1023200025FA331DC7F83C61C9F80040C8F80050D1
:10233000CAF800302B68C6F808A02846DB68EE63B0
:102340009847336830461B689847214628460BF06B
:102350004DFE236820461B69984723685B69204629
:1023600001B0BDE8F04F18475CEA010849ED0108EB
:10237000BCEB010803EC0108A6EC010864EF0108BE
:10238000DC190120D81901202DE9F14FD0E9556A57
:102390000746B06803681B6A9847B0F5B47F05D25A
:1023A000434B444AA32144481AF046FE7068036830
:1023B0001B6A98470F2803D8404B3E4AA421F2E7F6
:1023C000F06803681B6A98470B2803D83C4B394ACE
:1023D000A521E8E70AF0F6F8DFF8EC9004300AF0FF
:1023E0002FF9D9F8000010B10368DB689847D9F8D5
:1023F000000010B103681B689847DFF8D080D8F858
:10240000000010B103685B699847D7F83C0110B130
:1024100003685B689847D8F8000010B103681B6830
:102420009847D7F83C0110B103689B689847F0685B
:102430000021FFF75DFE4FF0000B224BC0F804B007
:10244000044680F808B00360B068036859465B6AC8
:102450009847054601F070F97068036859465B6A51
:1024600098472946064601F02FF9331DC7F83C610D
:10247000C9F80040C8F80050CAF800302B68C6F808
:1024800008A02846DB68EE639847336830461B682F
:102490009847214628460BF0A9FD236820461B6972
:1024A000984723685B69204601B0BDE8F04F1847A4
:1024B0005CEA01081BEE0108BCEB010803EC010813
:1024C000A6EC010864EF0108DC190120D8190120ED
:1024D000406A7047806A704770478B88C0690A6895
:1024E000DB0A50F823001044704710B50446BAB117
:1024F000107B68B1537BD27A1B0203F4E0631A436A
:10250000236A03EB82031A888A4202D193F90200FC
:1025100010BD05D8013880B204330028F3D1F7E7A5
:102520000020F5E710B52C2104461AF057FD20468F
:1025300010BD000030B58BB00446BDF86050089562
:10254000BDF85C5007959DF8505006959DF84C508D
:1025500005959DF8485004959DF8445003959DF8C5
:10256000405002959DF83C500195BDF838500095BB
:102570000BF096F9064B2360159BE361169B2362D3
:10258000199B63621A9BA36220460BB030BD00BF4B
:1025900088EF01080020704781807047C180704734
:1025A000018170474181704770477047704770479D
:1025B000704710B4C4880368121B84885B6D091BC4
:1025C00012B25DF8044B09B218474FF6FF738381CE
:1025D0004FF0FF3303621368C361106070477047A8
:1025E000704770477047704770477047704730B406
:1025F000C26844685510034604EB6200D20748BF26
:1026000062599B6830BC48BFD3581847034640689E
:1026100030B19A681AB9D86800F0010070470120FB
:10262000704710B5102104461AF0D8FC204610BDA2
:1026300010B54FF4B47104461AF0D0FC204610BD1A
:1026400090F8252012B103685B691847704790F82D
:1026500025201AB190F8242002B1186070479830F4
:10266000884208B505D109F0ADFFBDE80840FFF785
:102670001FBD08BD70B5036804461B6B154698471F
:102680002368294620465B6BBDE870401847000070
:10269000002310B5C0E90133C0E90333C0E90733B3
:1026A000C0E905334FF480738384064B03600B88C5
:1026B000C384FF23044680F8283008F03AF9204606
:1026C00010BD00BFDCF80108F8B5194B018F1B885D
:1026D0008B4206462AD9174B1B682BB9164B174A53
:1026E00017486C211AF0A8FC13F81120154B1B6831
:1026F00053F82250144B186800F08EFF2B680746E1
:102700009B6B284698472B6804469B6C39462846A5
:1027100098472B6814FB00F45B6A394628469847B3
:10272000A4B223181BB2A6F84630F8BD0023FAE77E
:10273000F0190120EC190120E8EF01082AF0010846
:1027400065F00108F4190120F81901202DE9F04F76
:10275000044685B0A14600250BF09CFA684BE56362
:1027600049F8403B674B2566C4E910354FF4807348
:10277000A4F86430FF2384F8663004F16C0304F19C
:10278000980B03A918464FF6FF76C4E91255C4E921
:102790001455C4E91655A56604F1E0080193ADF897
:1027A0000C60FFF775FF584608F0FAF903A9404698
:1027B00004F58E77DFF858A1ADF80C60FFF768FFDD
:1027C00001264FF0FF33C4E94436C4F8E0A003A962
:1027D000C4F80C5184F818513846ADF80C30FFF7A6
:1027E00057FF494AC4F81CA1C4E95624474AC4F813
:1027F00048514FF0FF33C4E95336C4E95825294600
:102800002A46484684F85451FFF734FF48464FF4AF
:10281000A071FFF7C5FE4846F021FFF7C3FE04F1A3
:10282000040A4FF07F43A3664946504606F07CFBFE
:1028300001982A466FF01001FFF71CFF0222019851
:10284000ADF80C2003A908F074F80199504606F081
:102850006BFB58463F222821FFF70CFF02A903AA71
:102860005846ADF80860ADF80C6007F029FF062265
:10287000A4F8D0205846FFF727FF4FF07F424FF0D3
:10288000FF33C4E9352304F5AC73C4F8C0305946AE
:10289000504606F049FB29464046B422FFF7EAFEBF
:1028A0001A224046182107F087FD3146404607F0BE
:1028B00096FD2B4632462946404607F0D5FC414658
:1028C000504606F031FB38468C220C21FFF7D2FE31
:1028D00013223846112107F06FFD3146384607F0C4
:1028E0007EFD2B4632462946384607F0BDFC504651
:1028F000394606F019FB204605B0BDE8F08F00BF51
:10290000CCF0010800F80108B4F001085F260008C7
:1029100084F7010830B50368018185B06D46014632
:10292000D3F8843004462846984795E807003C349D
:1029300084E8070005B030BD30B50368418185B03B
:102940006D460146D3F8843004462846984795E8FA
:1029500007003C3484E8070005B030BD0022028047
:1029600042808280C280704780F83610704770B510
:10297000036804461B6B1546984723682946204682
:102980005B6EBDE87040184700207047806C704750
:1029900070477047704710B54C2104461AF01EFB73
:1029A000204610BD10B54FF41D7104461AF016FBF9
:1029B000204610BD08B5FFF743FE08BD036870B59B
:1029C0005E6B124B1B6804468DB22BB9104B114A3B
:1029D0006C2111481AF030FB1049828D0988914210
:1029E00003D80F4B0B4A6D21F3E713F812200D4B60
:1029F0001B6853F8220003681B6B9847291A33465B
:102A0000204609B2BDE87040184700BFEC1901200C
:102A1000E8EF01082AF0010865F00108F01901202B
:102A2000F8F00108F419012000224FF0FF31C0E94D
:102A300000218260704700000022C0E90122C0E945
:102A40000322C0E90522C0E907224FF48072828484
:102A5000014A0260704700BF8CF1010837B54FF69C
:102A6000FF7304460D4601A9ADF80430FFF710FED0
:102A7000084B23604FF0FF320023C4E90B322A7861
:102A800084F83420204684F83530E38684F83830E2
:102A900003B030BD84F7010810B52622044600219A
:102AA0001AF0D1FC2046FFF7C7FF0A4BA3624FF68E
:102AB000FF73A3854FF47F020023C4E90C32064A5A
:102AC000226023874FF0FF32C4E91023E363A3643D
:102AD000204610BD54EA0108F4F101082DE9F04F39
:102AE00004468DB0A04600250BF0D4F8C04BE5633A
:102AF00048F8403B2622294640461AF0A4FC4046AE
:102B0000FFF79AFFBB4B2364FF2384F8663004F180
:102B10006C034FF6FF760AA91846A5660493ADF834
:102B20002860FFF7B5FD04F1980304F1C4091846C5
:102B30000AA90593ADF828600126FFF7A9FD0AA9A7
:102B400048468DF82860FFF789FF04F5807304F587
:102B50009E7B18460AA904F5BC7A01938DF828607B
:102B6000FFF77CFF0AA958468DF82860FFF776FF2B
:102B70000AA950468DF82860FFF770FF04F5DA7354
:102B800018460293FFF788FF04F500731846039375
:102B9000FFF782FF2A4640462946FFF76BFD404675
:102BA0004FF4A071FFF7FCFC4046F021FFF7FAFC60
:102BB000271D4FF07F43A3664146384606F0B4F91F
:102BC0002A4604986FF01001FFF754FD4FF00203FE
:102BD0000498ADF828300AA907F0ABFE04993846EE
:102BE00006F0A2F99D220598D521FFF743FD0F239A
:102BF0000598ADF828300AA907F09BFE05993846DC
:102C000006F092F94846B8222946FFF733FD1A220A
:102C10004846182107F0D0FB4846314607F0DFFB55
:102C20002B4632464846294607F01EFB49463846A1
:102C300006F07AF901989F220B21FFF71BFD152260
:102C40000198142107F0B8FB0198314607F0C7FB43
:102C50002B4632460198294607F006FB019984F875
:102C60002551384606F060F958468C220C21FFF7B2
:102C700001FD13225846122107F09EFB58463146AB
:102C800007F0ADFB2B4632465846294607F0ECFAD2
:102C90005946384606F048F97822F3215046FFF7A6
:102CA000E9FC04220321504607F086FB31465046DA
:102CB00007F095FB2B4632462946504607F0D4FADA
:102CC0005146384606F030F912220298DFF840B13A
:102CD0002221FFF7CFFC4FF07F43C4F8E431D4F852
:102CE000B4310299D3F88430A4F8E8510DF11808F2
:102CF0004046984798E8070004F5F87383E8070012
:102D0000DBF8003004F513792BB93B4B3B4A6021CB
:102D10003B481AF091F9DFF8FCA0BAF80030032B19
:102D200003D8384B354A6121F2E7374B0321186845
:102D300000F072FC354A03460A2148460CF014FCA8
:102D40000298C4F8FC9107F03DFCDFF8CC900298A3
:102D5000CDF8289004230AA9ADF82C3007F052FCD6
:102D60000299384606F0E0F803982D222221FFF759
:102D700081FCD4F800320399D3F88430A4F834529B
:102D80004FF07F42C4F830224046984798E8070049
:102D900004F50F7383E80700DBF8003004F51875BD
:102DA000002BB2D0BAF80030012BBAD9164B3146FD
:102DB000186800F031FC154A03460A2128460CF039
:102DC000D3FB0398C4F8485207F0FCFB4FF0020312
:102DD0000398ADF82C300AA9CDF8289007F012FC22
:102DE0003846039906F0A0F820460DB0BDE8F08FF4
:102DF00084F2010800F80108E8EF010836F1010843
:102E000065F00108F8F00108F819012081F10108C6
:102E1000EC190120F019012054EA010870477047AD
:102E2000704730B4C26844685510034604EB620032
:102E3000D20748BF62599B6830BC48BFD358184777
:102E40000346406830B19A681AB9D86800F00100AA
:102E500070470120704710B5102104461AF0BEF8E3
:102E6000204610BD10B54FF43D7104461AF0B6F877
:102E7000204610BD00F51470884208B505D109F050
:102E8000A1FBBDE80840FFF713B908BD70B50446C3
:102E90001D46BDF91060FFF7EDFB2368294620466B
:102EA0009B6B9847236831462046DB6BBDE870403A
:102EB000184700002DE9F04F044695B0A1460025C3
:102EC0000AF0E8FED74BE56349F8403B2622294645
:102ED00048461AF0B8FA4846FFF7AEFDD24B2364D5
:102EE00004F16C0BFF234FF6FF7684F8663012A9CD
:102EF000A5665846ADF84860FFF7CAFB04F1980391
:102F000012A918460393ADF84860FFF7C1FB4FF4D0
:102F10008073A4F8E830C54BC4F8C43004F1F00362
:102F200012A91846C4E93255C4E93455C4E93655E6
:102F3000C4E93855C4F8EC500493ADF84860FFF785
:102F4000A7FB04F58E7312A918460593ADF84860E7
:102F5000FFF79EFB04F5A47312A918460693ADF87B
:102F60004860FFF795FB04F5BA7312A9184607935A
:102F7000ADF84860FFF78CFB04F5D07312A9184632
:102F80000893ADF84860FFF783FB04F5E67312A9D8
:102F900018460993ADF84860FFF77AFB04F5FC7317
:102FA00012A918460A93ADF84860FFF771FB04F5C3
:102FB000097304F5147A184612A90B93ADF848600A
:102FC000FFF766FB2622294650461AF03CFA504687
:102FD000FFF732FD012304F5217884F87432944B15
:102FE000C4F8503226222946A4F87E62A4F88062F2
:102FF00084F88262C4F8785284F87C5240461AF011
:1030000022FA4046FFF718FD8A4BC4F8AC324FF461
:103010007F03C4F8B832884BC4F884324FF0FF33D2
:10302000C4E9B135854BA4F8B062C4E9B934844B26
:10303000C4F8B452C4E9BB35F0232A464846A4F884
:10304000BC52C4F8C052C4F8CC52294600934FF485
:10305000A073FFF71BFF261D4FF07F43A366494671
:10306000304605F061FF2A466FF010015846FFF721
:1030700001FB022312A95846ADF8483007F059FC6D
:103080005946304605F050FFB42203982946FFF711
:10309000F1FA18230398ADF8483012A907F049FC5B
:1030A0000399304604F1C40705F03EFF502338462B
:1030B00000934A22E7232D21FFF7E8FE0F22049810
:1030C0002521FFF7D7FA17230498ADF8483012A945
:1030D00007F02FFC3846049905F026FF0F220598CB
:1030E0003921FFF7C7FA0598ADF8485012A907F043
:1030F00020FC3846059905F017FF0F2206984D2150
:10310000FFF7B8FA1B230698ADF8483012A907F06C
:1031100010FC3846069905F007FF0F220798612139
:10312000FFF7A8FA4FF016090798ADF8489012A9D2
:1031300007F0FFFB3846079905F0F6FE0F220898C6
:103140007A21FFF797FA1C230898ADF8483012A9A6
:1031500007F0EFFB3846089905F0E6FE0F220998C4
:103160008D21FFF787FA1F230998ADF8483012A97F
:1031700007F0DFFB3846099905F0D6FE0F220A98C2
:103180009E21FFF777FA0A98ADF8489012A907F048
:10319000D0FB38460A9905F0C7FE0F220B98B121E3
:1031A000FFF768FA1D230B98ADF8483012A907F015
:1031B000C0FB38460B9905F0B7FE3946304605F09E
:1031C000B3FE8A2285215046FFF754FA1E2312AA25
:1031D00011A95046ADF84430ADF8483007F070FA08
:1031E00004F53973C4F878325146304605F09CFE38
:1031F0006F227F214046FFF73DFA4FF07F43C4F82E
:10320000B432D4F88432A4F8B8520CAF3846D3F8AC
:1032100084304146984797E8070004F5307383E807
:1032200007000FE0D0F2010800F80108C4F6010819
:1032300068F8010854EA0108F4F10108B8F201083D
:10324000752E0008194B1B6804F534772BB9184B01
:10325000184A6021184819F0EFFE184B1B881BB95B
:10326000174B144A6121F5E7164B2946186800F000
:10327000D3F9154A03460A2138460CF075F9404641
:10328000C4F8CC7207F09EF9104B129312A90523D3
:103290004046ADF84C3007F0B5F93046414605F0F0
:1032A00043FE204615B0BDE8F08F00BFEC190120A9
:1032B000E8EF010836F1010865F00108F019012076
:1032C000F8F00108F819012081F1010854EA010819
:1032D0007047000030B5164D2C68BFF35B8F14F0BB
:1032E00001048FB020D1284619F07AFEE0B13F23C7
:1032F0000993104B0893104B104911480A9401226E
:10330000CDE906430423CDE903320A230093CDE936
:103310000B44CDE901440594FFF70CF9094819F075
:10332000A9FE284619F068FE05480FB030BD00BF61
:10333000B80A0020EC080208FC080208A8060208E7
:10334000BC0A0020D13200087047000030B5174D8C
:103350002C68BFF35B8F14F001048FB022D1284694
:1033600019F03EFEF0B13F230993114B0893114B26
:1033700007930123CDE9054304930423CDE90243D8
:103380000F23009312230C490C480A941A46CDE9E6
:103390000B440194FFF7CEF8094819F06BFE28465C
:1033A00019F02AFE05480FB030BD00BFE80A002022
:1033B000F008020800090208B8060208EC0A00201A
:1033C000493300087047000030B5164D2C68BFF334
:1033D0005B8F14F001048FB020D1284619F000FE55
:1033E000E0B13F230993104B0893104B104911484B
:1033F0000A940122CDE906430423CDE903322823B0
:103400000093CDE90B44CDE901440594FFF792F810
:10341000094819F02FFE284619F0EEFD05480FB0B7
:1034200030BD00BF180B0020F40802080409020890
:10343000B40702081C0B0020C533000870470000C9
:1034400030B5164D2C68BFF35B8F14F001048FB0BC
:1034500021D1284619F0C4FDE8B13F230993104B50
:103460000893104B07930123CDE9054304930423EC
:10347000CDE902430F230C4900931522CDE90B44FB
:103480000A480A940194FFF755F8094819F0F2FD2B
:10349000284619F0B1FD05480FB030BD480B00209B
:1034A000F808020808090208C40702084C0B0020AB
:1034B0003D34000800207047002070470EB403B56B
:1034C00003AB002153F8042B01930AF011F802B06A
:1034D0005DF804EB03B070470CB407B504AB53F8C8
:1034E000042B01930AF004F803B05DF804EB02B07A
:1034F00070470000436C10B5044673B3038F2BB9BB
:10350000184B194AC521194819F096FDC38E00EBD6
:1035100043035B8C0BB30BF07EFA238F012B03D894
:10352000134B144ACB21EEE7E28E531C9BB2092BBE
:10353000194688BFA3F10A0104EB410140F63F1090
:10354000498C814209D10A2B04EB420228BF002397
:1035500004EB4303508C588451842046BDE810404E
:103560000BF05CB9FCF2010805F30108B0F30108A7
:10357000FAF3010808F401080BF017B910B586B08A
:1035800002AC84E806001A460AAB05930193099B36
:1035900000932146089B08F0B3FB06B010BD000065
:1035A00038B518BB124B13481C681349B4B12268D4
:1035B00022440260626822440A60A26814440F4BED
:1035C00000221A8000F038F8054600F033F80C4B62
:1035D0001C600C4B1D600C4B188007E00B4B03600C
:1035E0000B4B0B600B4B1C68002CE8D138BD00BFA7
:1035F000840B00207C0B0020780B0020800B002027
:10360000EC190120F4190120F01901202809020801
:103610000C09020894090208044B1B6853F82100A6
:10362000034B1B6803EB4000704700BF780B002082
:103630007C0B00200720704700487047880B002053
:1036400010B5FFF783FE064C2060FFF7BDFE6060FB
:10365000FFF740FEA060FFF7F3FEE06010BD00BF83
:10366000880B0020704710B54FF4AE71044619F076
:10367000B5FC204610BD10B50446D0F8580100F046
:1036800013F82046BDE8104009F038B810B50446DC
:10369000FEF7CEFC014B2360204610BDE4F4010888
:1036A0000022C0E900227047704770470438704715
:1036B000704710B51021044619F090FC204610BD4B
:1036C000A0F10400F5E7000000228260024A0260D7
:1036D00018324260C160704738F501087047000039
:1036E00010B5034B03600446FEF77EFF204610BD75
:1036F00060F5010810B50446FFF7F2FF20464FF4CD
:10370000B47119F06BFC204610BD000013B5094CD4
:10371000206803F086FCC0B250B100231A460DF1B8
:103720000701206803F04DFC08F04CFFFEF7C0FCD9
:1037300002B010BDAC07002010B50446FFF706F834
:10374000014B2360204610BD60F50108FEF74DBF18
:10375000704704387047704710B51021044619F0BF
:103760003DFC204610BDA0F10400F5E70022826078
:10377000024A026018324260C160704794F5010845
:10378000094B196810B54FF0E02209B99169196029
:103790001968064C926943F2390004FB010020F0DD
:1037A00000405040186010BD980B00206D4EC6417F
:1037B00090F86131F0B5002B37D0B0F84031B0F857
:1037C0004441B0F94261B0F8422103F10A052344B3
:1037D000D0F88C42A41B0A3B082CD8BF1B1BB0F8A6
:1037E000464102F10A01C8BF083B22442DB209B28A
:1037F0001BB20A3AD0F8B84212B22CBBB0F99C7096
:10380000B0F8A040B0F99E60B0F8A2003C4424B2E9
:103810003044BB4200B222DBA54220DCB2421EDBB8
:103820008142CCBF00200120F0BDB0F80621B0F9E4
:103830000451B0F80831B0F80A4102F10A012B44F2
:1038400009B21BB22244D5E7B0F97C71B0F88041CF
:10385000B0F97E61B0F882013C4424B2D8E7002080
:10386000E2E77047F7B5164F04460D460026AE4214
:1038700001D103B0F0BD4FF0FF333868002201A939
:1038800003F09FFBBDF804303F2B08D894F8A43216
:103890008BB984F86131012384F8253109E0C02B0C
:1038A00009D994F8A43233B9C4F8AC32012384F8AE
:1038B000A4320136DBE7012384F861310023EBE712
:1038C000B007002010B5034B03600446FFF760F813
:1038D000204610BDC0F5010810B50446FFF7F2FF01
:1038E00020464FF4327119F079FB204610BD0000DC
:1038F00010B50446FFF7F2F80F4B2360A1209C217E
:10390000C4E9A4014FF4A0728C236A21C4E9A61370
:10391000C4E9A22301200023C4E9AA030321C4E9C6
:10392000AE3384F8A4320A23C4E9AC12C4F8A0125E
:10393000C4F8C432204610BDC0F5010838B5D0F82F
:10394000BC320133C0F8BC3203689B6B0446984715
:1039500078B1D4E9B0329342E26BC8BFC4F8C43244
:1039600092685360D4F8C432936008F02BFEFEF7DF
:10397000AFFB3B4B186803F054FB014618B12368BA
:1039800020461B6B9847D4E9AD32002A42D0012A69
:1039900043D0D4F8B0229B1AC4F8B432323329DAB7
:1039A00023682046DB6B98472368D4F8A052DB6B72
:1039B00000F00100C4F8B802204698470323B0FB8A
:1039C000F3F303EB4303C01A23682844DB6BC4F80A
:1039D000B0022046D4F8885298471E23B0FBF3F279
:1039E00002FB13002844D4F8B852C4F8B402BDB1A5
:1039F000012D1DD0236820465B6B984794F8A432B4
:103A00001BB123682046DB6A9847201DBDE838407B
:103A100009F098BEA4F89C30BBE7A4F87C31B8E765
:103A20000123A4F89C0084F8BD3084F89D51E1E79F
:103A30002368A4F87C01DB6B20469847D4E9A623D1
:103A40009B1A0133B0FBF3F101FB13001044002378
:103A5000A4F87E0184F89D5184F8BD30CAE700BF08
:103A6000B0070020194AD0F8BC325343B3F1333FBA
:103A700098BFD0F8C032D0F8C42298BF013370B5D7
:103A800098BFC0F8C032D0F8C0329342044600F567
:103A9000137600F5DA7515DA0D4A0A2100F518706B
:103AA0000BF062FD04F5007009F04CFED4F8C4324E
:103AB000074A30460A210BF057FD2846BDE8704002
:103AC00009F040BE002280F82522F1E7CDCCCCCC15
:103AD000B4F50108F8B50446FEF75BFFE36B384E1A
:103AE0009B6800259B68C4F8C43232460A2184F8DA
:103AF000255104F513700BF037FD04F5DA7009F069
:103B000021FED4F8C03232460A2104F518700BF0B9
:103B10002BFD04F1C40604F5007009F013FE2946DC
:103B20003046B422FEF7A6FD01231A462946304648
:103B300004F59E7606F098FBB4F98C2230461921E4
:103B4000FEF798FD01231A462946304606F08CFB05
:103B500030460A2104F5807606F041FCB4F9902243
:103B600030461521FEF786FD01231A4629463046C8
:103B700006F07AFB30460A2106F031FC012704F5F5
:103B8000BC76B4F99422B4F9881284F8255104F172
:103B90009800FEF76FFDB4F99C22B4F9881284F8FE
:103BA000BD703046FEF766FD294630463B463A4634
:103BB00006F05AFB30460A21BDE8F84006F00FBC7B
:103BC000B4F501082DE9F04105464FF00108002643
:103BD00000F59E7780F8256180F86181384606F00F
:103BE00023FBD5F8AC32D5F88C22434403FB03F415
:103BF0006FF06301A4EB041494FBF1F41444C5F8D2
:103C0000AC326FF0090103EB831393FBF1F31C4417
:103C1000C5F8A84224B2A24203DDA5F84241BDE89E
:103C2000F081A5F84221434642463146384606F027
:103C30001BFB85F8A462C5F8A882F0E7704704383A
:103C40007047704710B51021044619F0C7F9204697
:103C500010BDA0F10400F5E700228260024A026074
:103C600018324260C160704708F6010870470000D2
:103C700010B5034B03600446FFF7D0F8204610BD93
:103C800030F6010810B50446FFF7F2FF20464FF466
:103C90003E7119F0A3F9204610BD000013B5094C80
:103CA000206803F0BEF9C0B250B100231A460DF1EE
:103CB0000701206803F085F908F084FCFEF7F8F9A5
:103CC00002B010BDAC07002010B50446FFF7F2F8B3
:103CD000034B23600023C4F8F432204610BD00BF1C
:103CE00030F6010810B50446FFF799F8E36B064A71
:103CF0009B685B68C4F8F43204F534700A21BDE8AF
:103D000010400BF031BC00BFB4F50108F020704743
:103D10004FF4A07070472920FDF7E0BC2820FDF784
:103D2000DDBC08B5FDF7AEFCCA20FDF7D7FCC3200B
:103D3000FDF7B8FC0820FDF7B5FC5020FDF7B2FCFC
:103D4000CF20FDF7CBFC0020FDF7ACFCC120FDF738
:103D5000A9FC3020FDF7A6FCED20FDF7BFFC642098
:103D6000FDF7A0FC0320FDF79DFC1220FDF79AFC57
:103D70008120FDF797FCE820FDF7B0FC8520FDF7DA
:103D800091FC0020FDF78EFC7820FDF78BFCCB200A
:103D9000FDF7A4FC3920FDF785FC2C20FDF782FC03
:103DA0000020FDF77FFC3420FDF77CFC0220FDF7AE
:103DB00079FCF720FDF792FC2020FDF773FCEA2048
:103DC000FDF78CFC0020FDF76DFC0020FDF76AFC80
:103DD000B120FDF783FC0020FDF764FC1B20FDF7FC
:103DE00061FCB620FDF77AFC0A20FDF75BFCA220FF
:103DF000FDF758FCC020FDF771FC1020FDF752FCC8
:103E0000C120FDF76BFC1020FDF74CFCC520FDF731
:103E100065FC4520FDF746FC1520FDF743FCC72057
:103E2000FDF75CFC9020FDF73DFC3620FDF756FCCD
:103E3000C820FDF737FCF220FDF750FC0020FDF70D
:103E400031FCB020FDF74AFCC220FDF72BFCB62068
:103E5000FDF744FC0A20FDF725FCA720FDF722FC16
:103E60002720FDF71FFC0420FDF71CFC2A20FDF78E
:103E700035FC0020FDF716FC0020FDF713FC0020A8
:103E8000FDF710FCEF20FDF70DFC2B20FDF726FCC5
:103E90000020FDF707FC0020FDF704FC0120FDF7E2
:103EA00001FC3F20FDF7FEFBF620FDF717FC01208B
:103EB000FDF7F8FB0020FDF7F5FB0620FDF7F2FB10
:103EC0002C20FDF70BFCC820FDF756FC2620FDF743
:103ED00005FC0120FDF7E6FBE020FDF7FFFB0F20CE
:103EE000FDF7E0FB2920FDF7DDFB2420FDF7DAFBE1
:103EF0000C20FDF7D7FB0E20FDF7D4FB0920FDF7C2
:103F0000D1FB4E20FDF7CEFB7820FDF7CBFB3C200C
:103F1000FDF7C8FB0920FDF7C5FB1320FDF7C2FB29
:103F20000520FDF7BFFB1720FDF7BCFB1120FDF7B7
:103F3000B9FB0020FDF7B6FBE120FDF7CFFB002029
:103F4000FDF7B0FB1620FDF7ADFB1B20FDF7AAFB2C
:103F50000420FDF7A7FB1120FDF7A4FB0720FDF7C8
:103F6000A1FB3120FDF79EFB3320FDF79BFB422098
:103F7000FDF798FB0520FDF795FB0C20FDF792FB64
:103F80000A20FDF78FFB2820FDF78CFB2F20FDF783
:103F900089FB0F20FDF786FB1120FDF79FFBC82052
:103FA000FDF7EAFB2920FDF799FBBDE808402C202E
:103FB000FDF794BB08B5FDF765FB0321D320FDF7A2
:103FC000A9FB80B208BD10B5C4B20222032120466D
:103FD000FDF70EFB0A20FDF753FB204600220321CC
:103FE000FDF706FBBDE810400220FDF749BB38B5E0
:103FF0000446E4B2FDF7FAFA00212046FDF710FB73
:10400000012105462046FDF70BFB40EA052080B262
:1040100038BD10B5C4B240212046FDF701FB0306B0
:1040200007D54C212046FDF7FBFA003818BF0120C8
:1040300010BD01224B212046FDF7DAFA204600226E
:104040004B21FDF7D5FA0020F2E773B50423C4B283
:104050000E461546D7210DEB03022046FDF7FAFA6E
:10406000019B1BBA1A0DC3F30B23328020462B8011
:1040700001224B21FDF7BCFA00224B212046FDF71F
:10408000B7FA02B070BD000010B50A4A1378984222
:1040900004460DD0517888420AD00BB141B90123B2
:1040A000D454FDF7A3FA2046BDE81040FFF78BBFBC
:1040B00010BD00BF9C0B002010B5C4B209212046E2
:1040C000FDF7AEFA40F00102D2B220460921BDE868
:1040D0001040FDF78DBA10B5C4B209212046FDF796
:1040E0009FFA092100F0FE022046BDE81040FDF7CE
:1040F0007FBA38B5C4B20D4620460A21FDF790FAC2
:1041000040EA0502D2B220460A21BDE83840FDF758
:104110006FBA10B50446FDF76AFA20461F21FFF773
:10412000E8FF2046BDE81040FFF7C6BF38B5C4B26F
:104130000D4620460A21FDF773FA20EA0502D2B2A5
:1041400020460A21BDE83840FDF752BA10B50446B2
:10415000FFF7C1FF20461F21BDE81040FFF7E6BF73
:1041600010B5C0B20C460B21FDF75AFA204010BD25
:104170001F21FFF7F5BF0A46C0B20B21FDF738BA81
:104180001F21FFF7F8BF38B5C4B20D4620461721EE
:10419000FDF746FA20EA0502D2B220461721BDE813
:1041A0003840FDF725BA70B5C4B206460421204652
:1041B000FDF736FA042100F0FB0205462046FDF724
:1041C00017FA3046F021FFF7DEFF05F0F80220462F
:1041D0000421FDF70DFA492220212046FDF708FAB7
:1041E0000220FDF74DFA204601222121FDF700FAB9
:1041F00020469A224121FDF7FBF9204601224A215F
:10420000FDF7F6F9204601224B21FDF7F1F9204692
:1042100000224B21FDF7ECF9204601225621FDF743
:10422000E7F9204601225821FDF7E2F92046012254
:104230004021FDF7DDF92046FF220B21FDF7D8F9DB
:10424000BDE870400220FDF71BBA0000054BD3F813
:10425000882042F47002C3F888204FF000629A6010
:10426000704700BF00ED00E008B50B4B1A6842F440
:1042700000721A601A6842F480621A601A6842F486
:1042800080721A60032000F045FA0020FDF744FD1B
:10429000FDF780FA002008BD003C0240034A044BB1
:1042A00011681B780B441360704700BFA00B0020FF
:1042B00078000020014B1868704700BFA00B002059
:1042C00038B50446FFF7F6FF631C1CBF054B1B788F
:1042D000054618BFE418FFF7EDFF431BA342FAD3CE
:1042E00038BD00BF7800002038B50446002800F033
:1042F0009B80056C25B9FDF76DFA656484F83C5028
:10430000236CDB0600F18E80236C23F4885323F0AA
:10431000020343F002032364444B5A6822F4403200
:104320005A605A6861680A435A60236821695A686A
:1043300022F480725A605A6842EA01225A605A682E
:10434000A16822F040725A605A680A435A609A681B
:10435000E16822F400629A609A680A439A603449DC
:10436000A26A8A4252D0996821F070619960996876
:104370000A439A609A68E16A22F040529A609A6809
:104380000A439A609A6822F002029A609A68217E33
:1043900042EA41029A6094F82020002A3ED05A68EE
:1043A000616A42F400625A605A6822F460425A60BC
:1043B0005A68013942EA41325A60DA6AE16922F404
:1043C0007002DA62DA6A013942EA0152DA629A6804
:1043D00022F400729A609A6894F8301042EA4122FE
:1043E0009A609A68616922F480629A609A680020F3
:1043F00042EA81229A606064236C23F0030343F055
:1044000001032364002384F83C3038BD9A6822F00D
:1044100070629A609A6822F04052B2E75A6822F4B9
:104420000062C9E70120EDE70120EEE7002301402B
:104430000100000F82B00023019390F83C30012B63
:1044400069D0012380F83C3003689A68D2070BD505
:104450009A68D1071AD4036C43F010030364436CC9
:1044600043F0010343644CE09A682C4942F0010296
:104470009A602B4A1268B2FBF1F202EB42020192FF
:10448000019A002AE4D0019A013AF8E7026C22F47A
:10449000E06222F0010242F4807202645A6852051E
:1044A00041BF026C22F4405242F480520264026C1A
:1044B00012F480521CBF426C22F0060242640022B9
:1044C00080F83C206FF022021A60164A516811F001
:1044D0001F0F15491CD18B4207D001F580718B420B
:1044E0000CD1526812F01F0F0BD19A6812F0405F86
:1044F00007D19A6842F080429A6002E00B498B42F1
:1045000002D0002002B07047526812F0100FEBE7A3
:104510008B42F6D1E9E70220F4E700BF40420F00EA
:1045200074000020002301400020014000220140CF
:1045300003689A68520570B504460D460BD59B6812
:10454000DE0508D5036C43F020030364002380F8E4
:104550003C30012070BDFFF7ADFE064623681A68A7
:1045600091070CD56FF012021A60226C42F40072AF
:1045700022649A6812F0405F17D00020EAE7681CB6
:10458000EDD065B923681B6813F00203E6D1226CF5
:1045900084F83C3042F0040222640320DAE7FFF79B
:1045A00089FE801BA842EDD8D8E7227E002AE4D1FC
:1045B000DA6A12F4700F02D09B685A05DDD4236CBE
:1045C00023F480732364236CDB04D6D4236C43F080
:1045D00001032364D1E70368D86C7047F7B5002363
:1045E000019390F83C30012B054600F086800123B2
:1045F00080F83C3008682B688E68092884B233D96B
:1046000004EB4402DF681E3A4FF0070C0CFA02FC80
:1046100027EA0C07DF60DF6806FA02F23A43DA6045
:104620004968062901EB81022DD8596B053A1F26EE
:10463000964021EA06015963596B04FA02F20A43D3
:104640005A632F4A93420AD1122837D12D4B5A6808
:1046500022F400025A605A6842F480025A60002034
:1046600085F83C0003B0F0BD1A6900EB400C072749
:1046700007FA0CF722EA07021A611A6906FA0CF621
:1046800016431E61CCE70C294FF01F010BD81E6B9F
:10469000233A914026EA01011963196B04FA02F2E8
:1046A0000A431A63CDE7DE6A413A914026EA0101E6
:1046B000D962D96A94400C43DC62C2E7124B98423B
:1046C00001D01128CBD10F4B5A6822F480025A60D6
:1046D0005A6842F400025A600B4B9842BFD10B4B10
:1046E0000B4A1B68B3FBF2F30A2253430193019B6D
:1046F000002BB4D0019B013BF8E70220B2E700BFDA
:10470000002001400023014012000010740000202E
:1047100040420F000749CA6822F4E0620302120413
:1047200003F4E063120C134343F0BF6343F400331C
:10473000CB60704700ED00E0164B30B5DC68C4F389
:104740000224C4F10703251D042B28BF0423062DD2
:104750004FF0FF358CBF033C002405FA03F321EA38
:104760000303A54022EA0502A340002843EA02030E
:10477000ACBF00F16040084A4FEA0313B8BF00F035
:104780000F00DBB2AABF00F56140135480F800337C
:1047900030BD00BF00ED00E014ED00E0002807DBB5
:1047A000044A4109012300F01F00834042F82130F0
:1047B000704700BF00E100E010B5044650B14379F6
:1047C00003F0FF0213B90271FDF75CF80123637176
:1047D000002010BD0120FCE710B5044630B390F86E
:1047E000393003F0FF021BB980F83820FDF762F87A
:1047F00022686168022384F83930136823F4403357
:104800000B431360536BA16823F007030B435363FF
:10481000136CE16823F47F5323F03F030B431364CD
:1048200000200123E06384F8393010BD0120FCE74B
:1048300070477047036870B55E681D68F2070446EC
:1048400014D5E90512D51A6822F480721A60C26B79
:1048500042F00102C26301229A60042380F83930D9
:10486000002380F83830436903B19847B20616D563
:10487000AB0414D523681A6822F400521A6020226F
:104880009A60E36B43F00203E363042384F8393056
:10489000002384F8383063690BB12046984730070D
:1048A00016D5290514D523681A6822F400621A6007
:1048B00008229A60E36B43F00403E363042384F863
:1048C0003930002384F8383063690BB120469847AB
:1048D00072070BD56B0509D523681A6822F480622C
:1048E0001A6004229A602046FFF7A2FFB00714D591
:1048F000A90512D523681A6822F400721A600222F0
:104900009A60E36BE363012384F83930002384F871
:10491000383023690BB120469847F20613D5EB04D3
:1049200011D523681A6822F480521A6010229A6006
:10493000E36BE363012384F83930002384F83830D3
:104940002046FFF776FF70BDF0B590F83820012AB9
:1049500003464FF002002BD0012283F8382083F861
:10496000390003EB0112D2E90740556A174F44EAB8
:104970000040093C012C9CBF05F07F4210434FEAE8
:1049800001161A6888BF40EA056091B9516A39403A
:1049900001435162012C9969916103D8596A21F050
:1049A0007F4191620122002083F8392083F838008A
:1049B000F0BDD16939400143D1619919012C896950
:1049C00011619CBF25F07F451562EBE7F0FFFC000D
:1049D0002DE9F74FDFF8BC916C4A00230D680124E4
:1049E0009C4004EA0506AC4340F0B7804D680327BD
:1049F00005F003044FEA430807FA08FC671E012F7D
:104A00006FEA0C0C34D8876807EA0C0ECF6807FAF7
:104A100008F747EA0E078760476827EA060EC5F3DE
:104A200000179F4047EA0E074760C76807EA0C0E69
:104A30008F6807FA08F747EA0E07022CC76019D1FA
:104A40004FEAD30A00EB8A0A03F0070BDAF820706A
:104A50004FEA8B0B4FF00F0E0EFA0BFE27EA0E0EED
:104A60000F6907FA0BF747EA0E07CAF8207001E052
:104A7000032CDAD1076804FA08F407EA0C073C4370
:104A800015F4403F046068D000240194D9F84440F4
:104A900044F48044C9F84440D9F8444023F0030763
:104AA00007F1804704F4804407F59C37019403F034
:104AB000030C019CD7F808E04FEA8C0C0F2404FA91
:104AC0000CF42EEA040E324CA0424DD004F5806462
:104AD000A0424BD004F58064A04249D004F5806424
:104AE000A04247D004F58064A04245D004F580641C
:104AF000A04243D004F58064A04241D004F5806414
:104B0000A0423FD004F58064A0423DD004F580640B
:104B1000A04214BF0A24092404FA0CF444EA0E0447
:104B2000BC609468F74315F4801F0CBF3C403443CD
:104B30009460D46815F4001F0CBF3C403443D4602B
:104B4000546815F4003F0CBF3C4034435460146873
:104B5000ED0354BF3C40344314600133102B7FF409
:104B60003DAF03B0BDE8F08F0024D5E70124D3E7C3
:104B70000224D1E70324CFE70424CDE70524CBE7C3
:104B80000624C9E70724C7E70824C5E7003C01401D
:104B900000000240003802400369194214BF01209E
:104BA000002070470AB1816170470904FBE743693F
:104BB00001EA030221EA030141EA024181617047EF
:104BC00001684B6913F480634FF0000210D06FF45A
:104BD00080634B612023026380F83D3080F83E20E3
:104BE000036C80F83C2043F0040303640120704709
:104BF000184670472DE9F84606460F4691461D4671
:104C00004FEA114A3368BAF1010F0CBF5C699C6925
:104C100027EA0404A4B2B4FA84F46409A14501D0DB
:104C2000002025E06A1CEED0FFF744FB089BC01A69
:104C3000A84201D8002DE5D13368BAF1010F0CBFAD
:104C40005B699B6927EA03039BB2B3FA83F35B09B1
:104C50009945D7D100232022336386F83D2086F87A
:104C60003E30326C86F83C3042F020023264012043
:104C7000BDE8F8862DE9F04104460F4616469846F1
:104C80002568686927EA000080B2C0B16B695A05DF
:104C900017D52B6843F400732B606FF480636B614E
:104CA00020220023236384F83D2084F83E30236CC7
:104CB00043F004032364002384F83C300120BDE862
:104CC000F081731CDDD0FFF7F5FAA0EB0800B042CD
:104CD00001D8002ED4D123685A6927EA020292B281
:104CE000002ACDD000232022236384F83D2084F8BD
:104CF0003E30236C1343DDE770B504460D4616467F
:104D000023685B691B0601D500201EE02046FFF7E3
:104D100057FFC8B96A1CF3D0FFF7CCFA801BA84232
:104D200001D8002DECD123685B6913F08003E7D133
:104D30002022236384F83D2084F83E30226C84F8DE
:104D40003C3042F020022264012070BD2DE9F04386
:104D50001546026885B0DDE90C789946136843F47E
:104D6000807313600E463B46CDF8008000224FF062
:104D700001110446FFF73EFF236838B11B68DB05CD
:104D800002D54FF400732364032620E006F0FE06EC
:104D90001E611A4943463A462046FFF76BFFA8B901
:104DA000236803905A6903929B69039342463946EC
:104DB0002046039BFFF7A0FF064660B1236C042B3F
:104DC00001BF2268136843F4007313600126304664
:104DD00005B0BDE8F083B9F1010F236802D1EDB24F
:104DE0001D61F4E72A0A1A61394642462046FFF758
:104DF00083FF0028E2D12368F1E700BF0200010031
:104E00002DE9FF479A46036815461A6842F4806206
:104E10001A601A68DDE90C7842F480721A600E4656
:104E20003B46CDF8008000224FF001110446FFF709
:104E3000E1FE236838B11B68DB0544BF4FF4007303
:104E40002364032021E05FFA86F906F0FE061E6166
:104E50002B4943463A462046FFF70CFFA0B923688A
:104E600003905A6903929B69039342463946204650
:104E7000039BFFF741FF58B1236C042B01BF22684D
:104E8000136843F400731360012004B0BDE8F08799
:104E9000BAF1010F23681AD1EDB242461D613946BD
:104EA0002046FFF729FF02460028E5D121680B685C
:104EB00043F480730B602046CDF800803B464FF0F2
:104EC0000111FFF797FE226860B11368B4E72A0A60
:104ED0001A61394642462046FFF70EFF0028CBD123
:104EE0002368D9E749F001031361054943463A466F
:104EF0002046FFF7BFFE003818BF0120C5E700BFFE
:104F00000200010070B504460D46164623685B6931
:104F10005B0701D500201EE02046FFF751FEC8B90F
:104F20006A1CF3D0FFF7C6F9801BA84201D8002DF8
:104F3000ECD123685B6913F00403E7D120222363DB
:104F400084F83D2084F83E30226C84F83C3042F0F6
:104F500020022264012070BD70B504460D4616463D
:104F600021684B6913F0400301D0002011E04A6929
:104F7000D2060FD56FF010024A612022236384F815
:104F80003D2084F83E30236C2364002384F83C30B9
:104F9000012070BDFFF78EF9801BA84201D8002DBB
:104FA000DED123685B6913F04003D9D1202223634B
:104FB00084F83D2084F83E30236C1343E4E700007E
:104FC00070B5044608B9012070BD90F83D3003F07B
:104FD000FF021BB980F83C20FCF78EFC242384F8E8
:104FE0003D3023681A6822F001021A601A6842F400
:104FF00000421A601A6822F400421A6000F078FE3B
:105000003F4B65689D4294BF3E4B3F4B98428CBFDF
:1050100000230123002BD6D12268394E51683B4B27
:10502000B0FBF3F321F03F011943B542516088BF53
:105030004FF49676116A88BF734321F03F0184BF15
:105040004FF47A76B3FBF6F301330B431362D16965
:10505000431E2B4821F44F41854221F0FF0132D8F5
:105060006D0040F6FC70B3FBF5F30133034242D010
:10507000C3F30B031943D161D4E90730116803432B
:1050800021F0C0010B4313609168D4E9030321F4BC
:105090000341034321F0FF010B439360D4E9053042
:1050A000D168034321F0FF010B43D360136843F041
:1050B0000103136000202023206484F83D30206326
:1050C00084F83E0080E7A06850B905EB4505B3FBC6
:1050D000F5F30133C3F30B037BB143F40043C9E79A
:1050E00019206843B3FBF0F30133C3F30B0323B17F
:1050F00043F44043BEE70423BCE70123BAE700BF03
:10510000A08601007F841E00FF083D0040420F0082
:105110002DE9F743044699460C9E0F469046FFF74B
:10512000C9F894F83D30202B054603D0022003B087
:10513000BDE8F08300903C49192301222046FFF787
:1051400059FD0028F2D194F83C30012BEED02068B4
:10515000012384F83C300368D9075EBF036843F03D
:1051600001030360036823F400630360212384F8D0
:105170003D30402384F83E30002323640A9B636261
:10518000BDF82C306385638D2385284BE36242464E
:10519000CDE900654B4639462046FFF7D7FD00288C
:1051A0002AD00120C3E7FFF7A7FD40B1236C042BF1
:1051B00001BF2268136843F400731360F1E7636A68
:1051C00027681A4612F8011B39616262628D218DCF
:1051D000013A92B262857A69481E80B252072085F0
:1051E0000AD548B15A783A6102336362638D013B54
:1051F00002399BB221856385238D2A46314620469C
:10520000002BD0D1FFF77EFE0028CFD12268136893
:1052100043F400731360202384F83D3084F83C008D
:1052200084F83E0083E700BF020010000000FFFF8B
:105230002DE9F043044687B09946109F0D469046ED
:10524000FFF738F894F83D30202B064604D00225AD
:10525000284607B0BDE8F08300907A49192301225F
:105260002046FFF7C7FC0028F1D194F83C30012B11
:10527000EDD02068012384F83C300368DB075EBF73
:10528000036843F001030360036823F400630360D1
:10529000222384F83D30402384F83E3000232364E9
:1052A0000E9B6362BDF83C306385638D2385664B3E
:1052B000E3622946CDE900764B4642462046FFF799
:1052C0009FFD054608B10125C2E7228D2368B2B9CA
:1052D00002905A6902929A690292029A1A6842F4FA
:1052E00000721A60DFF86481238D002B2CD12022FC
:1052F00084F83D2084F83C3084F83E30A8E7012A49
:105300000AD11A6822F480621A6003905A690392E3
:105310009A690392039AE1E7022A0ED11A6822F4ED
:1053200080621A601A6842F400621A6004905A6936
:1053300004929B690493049BD4E705905A690592F3
:105340009B690593059BCDE7032B56D8012B15D1FF
:10535000324639462046FFF7FFFD0028B3D12368C7
:105360001A69636A1A70636A01336362238D013BB1
:105370002385638D013B9BB26385B5E7022B0096C5
:105380003B464FF000024146204619D1FFF732FC60
:10539000002898D123681A6842F400721A601A69CA
:1053A000636A1A70626A531C6362238D013B238512
:1053B000638D013B9BB2638523681B695370D2E701
:1053C000FFF718FC024600287FF47DAF23681968B8
:1053D00021F4806119601969636A1970636A013385
:1053E0006362238D013B2385638D013B9BB2638503
:1053F000414600963B462046C8E73246394620469D
:10540000FFF7AAFD00287FF45EAF23681A69636A7C
:105410001A70628D616A013A92B24B1C62852268F1
:105420006362238D5069013B9BB2400723857FF562
:105430005BAF032B02BF136823F48063136013690F
:105440004B7090E7020010000000FFFF0400010015
:1054500010B590F83D30202BDCB216D1242380F813
:105460003D3003681A6822F001021A605A6A22F07D
:1054700010025A625A6A114359621A6842F00102D4
:105480001A6080F83D40002010BD0220FCE730B5D6
:1054900090F83D30202BDCB216D10268242380F82E
:1054A0003D30136823F001031360556A4FF6F07323
:1054B0002B400B439BB25362136843F0010313600C
:1054C00080F83D40002030BD0220FCE70068D1F8A4
:1054D00000C0D201843283182DE9F043C6685D68AC
:1054E0004C68D1F8189005F470455D60C5680CF102
:1054F0000107C5F30B45C6F30B463D44264445EA78
:1055000006455D60C668CD68C6F30A062E449D68F0
:1055100005F470459D60C7688D68C7F30A070135BB
:105520003D4445EA06459D601D690E6925F0070565
:105530001D614FF0000E1E619D6991F8327091F867
:105540003180C3F818E091F8305045EA096545EA22
:10555000082545EA07459D615D6925F0FF055D6108
:105560004D695D61DD6925F4E06525F00705DD61C4
:10557000D1E907573D43DD619D6A4D6AC3F828E0D4
:105580009D621EB3012E23D0B51E022D22D9072EF7
:1055900014BF01250225DE6A06F0E026DE62A4EBD8
:1055A0000C048E6AC96A6C436E43033444EA0644B1
:1055B000DC621C6B24F4FF6424F007041C63196391
:1055C000835843F001038350BDE8F0830425E2E7EC
:1055D0000325E0E70225DEE738B50446002863D05E
:1055E00090F8A13003F0FF021BB980F8A020FCF76F
:1055F000DFF9022384F8A13023689A6922F070420F
:105600009A61D4E901200243E06899690243206964
:1056100002430A439A619A68244960690A409A6081
:105620009A6842EA0042A06902439A60DA68E06937
:105630000A40DA60DA6842EA0042206A0243DA602D
:105640001A69606A0A401A611A6942EA0042A06A4D
:1056500002431A615A690A405A615A69E16A42EA88
:105660000142216B0A435A61DA6A94F8350094F8D2
:10567000361002F07F42DA62DD6A94F834202A4361
:1056800042EA002242EA0142DA625A6B42F0060222
:105690005A639A6942F001029A6100200123C4F81A
:1056A000A40084F8A13038BD0120FCE700F800F028
:1056B00070477047036870B59E6B5D6B7207044658
:1056C00014D5690712D55A6B22F004025A630422DA
:1056D000DA63D0F8A43043F00103C0F8A43000230B
:1056E00080F8A12080F8A030FFF7E2FFB20716D5BE
:1056F000AB0714D523685A6B22F002025A630222C8
:10570000DA63D4F8A4301343C4F8A430042384F833
:10571000A130002384F8A0302046FFF7C9FFF0072E
:1057200010D5E9070ED523685A6B22F001025A639F
:105730000122DA63002384F8A12084F8A0302046F7
:10574000FBF70EFC320711D52B070FD523685A6BD8
:1057500022F008025A630822DA63012384F8A13098
:10576000002384F8A0302046FFF7A3FF70BD2DE989
:10577000F04190F8A030012B06460F4694464FF0BA
:1057800002001FD04FF0010886F8A08086F8A10023
:1057900034240D4604FB02640FCD38340FC40FCD02
:1057A0000FC40FCD0FC42B682360304662463946C4
:1057B000FFF78CFE33680020C3F8248086F8A180B0
:1057C00086F8A000BDE8F08190F8A020012A0346E9
:1057D0004FF0020012D01A6883F8A100506B20F03D
:1057E0000100506306480164516B41F001015163AF
:1057F0000020012283F8A12083F8A000704700BF99
:10580000006801402DE9F341044640B30368DE0718
:1058100010D423689D075BD42368190700F19D808D
:1058200023685A0700F1BD80A369002B40F0248152
:1058300000202CE08D4B9A6802F00C02042A07D05D
:105840009A6802F00C02082A0BD15B68590208D54D
:10585000864B1B689A03DCD56368002BD9D10120E5
:1058600015E06368814DB3F5803F13D12B6843F495
:1058700080332B60FEF71EFD7C4E054633689B038C
:10588000C7D4FEF717FD401B6428F7D9032002B0E8
:10589000BDE8F081B3F5A02F04D12B6843F4802339
:1058A0002B60E3E72A6822F480322A602A6822F417
:1058B00080222A60002BDDD1FEF7FCFC06462B6817
:1058C0009F03A6D5FEF7F6FC801B6428F7D9DDE719
:1058D000664B9A6812F00C0F07D09A6802F00C021F
:1058E000082A11D15B685D020ED4604A13689907DB
:1058F00002D5E368012BB2D11368216923F0F803C4
:1059000043EAC103136087E7E268594BB2B1012251
:105910001A60FEF7CFFC554D06462B689B0707D54E
:105920002B68226923F0F80343EAC2032B6073E774
:10593000FEF7C0FC801B0228EFD9A7E71A60FEF72C
:10594000B9FC4A4E054633689F077FF565AFFEF701
:10595000B1FC401B0228F6D998E76269444B82B13A
:105960000122C3F8802EFEF7A5FC404E0546736F5A
:105970009B073FF555AFFEF79DFC401B0228F6D96B
:1059800084E7C3F8802EFEF795FC384E0546736F0A
:105990009F077FF545AFFEF78DFC401B0228F6D927
:1059A00074E7324B1A6C12F0805228D101921A6CB3
:1059B00042F080521A641B6C03F080530193019BE8
:1059C00001272C4D2B68D8051BD5A368274D012B2B
:1059D00027D12B6F43F001032B67FEF76BFC234E9F
:1059E000054641F28838336F9A0739D5002F3FF4C6
:1059F0001BAF1E4A136C23F08053136414E7002777
:105A0000DFE72B6843F480732B60FEF753FC0646F8
:105A10002B68D905D9D4FEF74DFC801B0228F7D995
:105A200034E7052B04D12B6F43F004032B67D0E739
:105A30002A6F22F001022A672A6F22F004022A67E5
:105A4000002BCAD1FEF736FC41F2883806462B6F90
:105A50009B07CBD5FEF72EFC801B4045F7D915E7F9
:105A6000FEF728FC401B4045BDD90FE70038024037
:105A70000000474200700040374DAA6802F00C0257
:105A8000082A3ED0022B354B4FF000021A662BD16C
:105A9000FEF710FC06462B6899011FD4D4E90732A3
:105AA0001343626A43EA8213E26A43EA0263A26A28
:105AB0005208013A43EA02436B60284B264D01220B
:105AC0001A66FEF7F7FB04462B689A013FF5B0AE65
:105AD000FEF7F0FB001B0228F6D9D7E6FEF7EAFB3B
